:020000040800F2
:100000000809002049020008713300089B300008ED
:100010003D3300087D1600083B4B0008000000003F
:10002000000000000000000000000000853C000807
:10003000251900080000000085330008B13C0008C5
:1000400063020008630200086302000863020008FC
:1000500063020008630200086302000863020008EC
:1000600063020008630200086302000863020008DC
:1000700063020008630200086302000863020008CC
:1000800063020008630200086302000863020008BC
:1000900063020008630200086302000863020008AC
:1000A000630200086302000863020008630200089C
:1000B00063020008ED4900086302000863020008BB
:1000C000630200086302000863020008630200087C
:1000D000630200086302000863020008630200086C
:1000E000630200086302000863020008630200085C
:1000F000630200086302000863020008630200084C
:10010000630200086302000863020008630200083B
:10011000630200086302000863020008630200082B
:10012000630200086302000863020008630200081B
:10013000630200086302000863020008630200080B
:1001400063020008630200086302000863020008FB
:1001500063020008630200086302000863020008EB
:1001600063020008630200086302000863020008DB
:100170006302000863020008630200080000000038
:10018000630200086302000800F002F800F04CF877
:100190000AA090E8000C82448344AAF10107DA45E2
:1001A00001D100F041F8AFF2090EBAE80F0013F0E8
:1001B000010F18BFFB1A43F00103184760880000C5
:1001C00080880000103A24BF78C878C1FAD8520756
:1001D00024BF30C830C144BF04680C6070470000C1
:1001E0000023002400250026103A28BF78C1FBD840
:1001F000520728BF30C148BF0B607047662904F022
:10020000F987642900F0F480002070471FB504F0DE
:10021000ECFF00F061FC04000020002104F058FF16
:10022000E0601FBD10B510BD00F056FD1146FFF790
:10023000EDFF04F0E1FE00F074FD03B4FFF7F2FF00
:1002400003BC00F0B7FD000009488047094800479B
:10025000FEE7FEE7FEE7FEE7FEE7FEE7FEE7FEE776
:10026000FEE7FEE704480549054A064B70470000D3
:100270004D3D0008890100080803002008090020FE
:10028000080500200805002053EA020C00F06980F0
:100290002DE9F04B4FF00006002B1FBFB3FA83F59A
:1002A00003FA05F424FA05F65E4012BF1643B2FACB
:1002B00082F502FA05F4C5F120051EBF22FA05FCFD
:1002C00044EA0C04203556EA044C4FEA144418BFA3
:1002D000641C4FF000084FF00009904271EB030CD2
:1002E00039D3002919BFB1FA81F701FA07F6B0FA3C
:1002F00080F700FA07F6C7F120071EBF20FA07FCB7
:1003000046EA0C062037B6FBF4FCA7EB0507103FC6
:1003100007F01F0BCBF120060CFA0BFB2CFA06F6AC
:1003200044BFB3460026202FA4BF5E464FF0000B0B
:100330005BEA060C08BF4FF0010B19EB0B09ABFB96
:10034000027C48EB0608C01B06FB02CC0BFB03CC6F
:1003500071EB0C01C1E70B46024641464846BDE839
:10036000F08B13B54FF000004FF00001AFF30080A9
:10037000BDE81C40704700000FB41CB5074B06AA2F
:100380007B4469460090059800F08DFB002069468B
:1003900000F09CFB1CBC5DF814FB0000490700004A
:1003A00070B5044685690068C10601D5302600E0B5
:1003B0002026C00707D070BDD4E901213046904700
:1003C000206A401C20626D1EF6D570BD70B50446D3
:1003D00085690078C00707D170BDD4E901212020CC
:1003E0009047206A401C20626D1EF6D570BD00004B
:1003F0002DE9F0410646002410687529314616A5FE
:1004000010D0AFF30080002802DA404213A507E0C5
:1004100031688A0701D512A502E0490704D511A564
:10042000012401E0AFF3008000210A2206F1240735
:1004300009E0B0FBF2FCB0FBF2F302FB1C00303031
:1004400078541846491C0028F3D123462A463046E2
:10045000BDE8F04100F0B9B8000000002D00000038
:100460002B000000200000002DE9F0474FF0000AAB
:1004700089460446C0F820A02046E1688847002845
:1004800076D0252806D0D4E901219047206A401C67
:100490002062F1E7E168204600258847C4F81CA0E7
:1004A00006460027C4F818A02A2E09D0304604F0CA
:1004B00085FC38B304EB8708303EC8F8186019E0B3
:1004C00059F8041B204604EB87029161E1688847D4
:1004D000012F064618D1E069002820DA25F0200512
:1004E0001DE0D8F8180000EB800006EB4000303823
:1004F000C8F818002046E1688847064604F05EFC0C
:100500000028EED1012F0AD02E2E08D12046E16816
:1005100088477F1C0646022F45F02005C4DBA069F2
:10052000002803DA404245F00105A061E80701D048
:1005300025F01005B6B1A6F14100192802D82036E1
:1005400045F400654A463146204625604D46FFF792
:1005500055FE58B1012806D0ED1D25F0070000F129
:10056000080989E704E005F1040985E730468AE7D0
:10057000206ABDE8F0874FF0000200B513469446AC
:100580009646203922BFA0E80C50A0E80C50B1F1EB
:100590002001BFF4F7AF090728BFA0E80C5048BFFF
:1005A0000CC05DF804EB890028BF40F8042B08BF9D
:1005B000704748BF20F8022B11F0804F18BF00F899
:1005C000012B70477047704770472DE9F0470D4683
:1005D00099469246044600F124080168880604D52D
:1005E000E06921F01001216000E00120A84201DD56
:1005F000471B00E00027A1697A1902EB0900081ADD
:10060000A0612078C00602D42046FFF7C9FE00266C
:1006100008E0D4E901211AF806009047206A401C3E
:10062000761C20624E45F4DB2078C0060AD52046B1
:10063000FFF7B6FE06E0D4E9012130209047206A9A
:10064000401C2062381EA7F10107F4DC07E0D4E962
:10065000012118F805009047206A401C2062281EDE
:10066000A5F10105F3DC2046FFF7B0FE2078000677
:1006700002D50220BDE8F0870120FBE770472DE995
:10068000FF4F0C461E464FF0FF378BB0D2E90001FA
:10069000DDF860800A908A46C1F30A5505B93D46E7
:1006A000002108464FF00000BAF1000F00F44000AE
:1006B00005DA00EB80004FF4400101EA50004FEAF8
:1006C0009059B9F1010F00DDB9460A9850EA4A0085
:1006D0000ED044F61050A5F2FF3545432F14B8F163
:1006E000000F1ED07542291E1EDDC9F100021CE05C
:1006F000B8F1010F4FF0000001D0302103E0F243C8
:1007000005E02154401CB042FBDB304600220021B2
:1007100021540B99C1F80880C1E900200FB0BDE851
:10072000F08FBD1B6D1CDEE74A4600DA694206A861
:1007300000F05CFA06AB93E8070003AB83E8070020
:1007400050460A9900F03DFB8DE80700A0F50050E7
:100750001F3800900398002D0ADD42F21F014A461F
:100760000844002303A90390684600F0A6FD09E0B1
:10077000A0F500504A461F38002303A9039068469D
:1007800000F0B0FD8DE807000004000C03D04FF02E
:10079000FF30410800E01046B8F1000F03D00022FE
:1007A000009215461EE0751E05D400F099F930320E
:1007B00062556D1EF9D5B3460122084302D00022CE
:1007C0007F1C04E02078302801D100227F1E002AFF
:1007D000099784D01DE0112D07DA00F081F930323D
:1007E00062556D1C50EA0102F5D1084302D0009811
:1007F000C8B10EE00021681E05E0235C625C635412
:100800002254401E491C8142F7DBAB46A81B401E08
:100810000990002004F80B000B98099AC0F8088092
:10082000C0E9002B7AE711264FF0000857E72DE9C1
:10083000F04F88460446D21D22F0070191B0D1E95D
:100840000001CDE90A0104F091FA02460B98C00FAD
:1008500001D02D2007E02068810701D52B2002E080
:10086000202101EAC000032A099001D0072A05DBF4
:1008700003464146204600F079F90BE120788006D6
:1008800001D5E06900E00620B8F1650F814606D089
:10089000B8F1660F18D0B8F1670F70D131E00020C1
:1008A000B9F1110F009001DB112301E009F10103FF
:1008B0000AAA01A90CA8FFF7E2FEDDE90C700026E8
:1008C00009F10105834647E001204B4600904FF0B7
:1008D00000470AAA01A90CA8FFF7D1FEDDE90DB077
:1008E0000C995D46002610B909F101000D18B9EB0D
:1008F000050003D4C0F1FF3609F10105A5EB09009D
:100900002BE0B9F1010F01DA4FF001090020B9F134
:10091000110F0090484601DD112300E003460AAAAA
:1009200001A90CA8FFF7ABFEDDE90C704D460026CF
:100930008346207800070AD4AB4500DA5D4601A85B
:10094000012D04DD411911F8011C302907D04F4554
:1009500002DA17F1040F04DA012082460FE06D1E5F
:10096000EEE7002F02DCED1B3E4403E0781CA842BA
:1009700000DD7D1CB81B00F1010A4FF00047207814
:10098000000703D4AA4501DB4FF0FF3A0021B7F17D
:10099000004F0DF143088DF8431024D002202B2383
:1009A000002F01DA7F422D230A21021EA0F101004F
:1009B00000DC5FB197FBF1FC97FBF1F201FB1C7CC3
:1009C00017460CF1300C08F801CDEEE7A8F1010054
:1009D00003702188090501D5452100E06521A0F1BA
:1009E000010800F8011C09980FA9A1EB0807FF1DD9
:1009F00000B10120411901EBEA70A1693844081ADD
:100A0000401EA0612078C00602D42046FFF7C8FC33
:100A1000099828B1D4E901219047206A401C20623E
:100A20002078C00622D52046FFF7BAFC1EE0002E33
:100A300004DBB34502DD01A8805D00E03020D4E98D
:100A400001219047206A401C2062761CAAF1010017
:100A50005FEA000A0AD100F03FF8C0680168405C14
:100A6000D4E901219047206A401C2062281EA5F18C
:100A70000105DCDC07E0D4E9012118F8010B9047FF
:100A8000206A401C2062381EA7F10107F3DC2046D3
:100A9000FFF79CFC032011B041E6000001694A1CED
:100AA00002610878704700B58FB0CDE901310021AF
:100AB000059105497944CDE9031011466846FFF7D1
:100AC000D3FC0FB000BD0000E5FFFFFF0A6802F88D
:100AD000010B0A607047000000487047C802002000
:100AE00030B5B0F10A024FEA900E71F100034EEA00
:100AF000817EB0EB0E0061EB91014FEA101E4EEAD1
:100B0000017E10EB0E0041EB11114FEA102E4EEA60
:100B1000016E10EB0E0041EB11214FEA104E4EEA30
:100B2000014E10EB0E0041EB1141401841F1000164
:100B30004FEAD00040EA41704FEAD10110EB800546
:100B40004FEA810444EA907444EB01046D1944EBCC
:100B50000404521BA3414FF0000348BF0A3200D5E2
:100B600030BD401C41F1000130BD00002DE9F041D5
:100B70001F46044603260168072A01F4006004DBCF
:100B800008B116A505E016A503E008B115A500E01B
:100B900015A521F010002060A069C01EA0610FB152
:100BA000401EA0612046FFF7FBFB4FB1D4E90121B5
:100BB00038469047206A401C2062C01C206206E034
:100BC000206AFAE7D4E9012115F8010B9047761E57
:100BD000F8D22046FFF7FAFBBDE8F0814E414E0007
:100BE0006E616E00494E4600696E66002DE9F04761
:100BF000814616468AB0354878440DC88DE80D0008
:100C000032487844801C03AC0DC884E80D0041F6DE
:100C10009B300844372190FBF1F290FBF1F5A5F1F0
:100C2000800501FB12041B3C02D56442012000E058
:100C30000020DFF898A080460027FA44AAF1BE0AF7
:100C40000EE0E0070AD03246684607EB4701012371
:100C50000AEB810100F046FB8DE8070064107F1C61
:100C6000002CEED1194F7F44AE3F19E0E80715D0B4
:100C700007EB04100DF1180A90E80E008AE80E0048
:100C8000C068F04201D1981908903246012306A9A4
:100C900003A800F027FB03AB83E807006D10641C7A
:100CA000002DE3D14FF0010332466946B8F1000F41
:100CB00003A802D000F001FB01E000F013FBC9E93A
:100CC0000001C9F808200AB0BDE8F087087E0000DE
:100CD00000487047A80200207546FFF7F9FFAE46AE
:100CE00005006946534620F00700854618B020B538
:100CF000FFF7B8FABDE820404FF000064FF00007BC
:100D00004FF000084FF0000B21F00701AC46ACE8B3
:100D1000C009ACE8C009ACE8C009ACE8C0098D4620
:100D2000704710B50446AFF300802046BDE8104080
:100D3000FFF783BA4FF0013C50F8042B51F8043B05
:100D40009A4221D1A2EB0C03934313EACC1317D19F
:100D500050F8042B51F8043B9A4215D1A2EB0C0336
:100D6000934313EACC130BD150F8042B51F8043BF6
:100D70009A4209D1A2EB0C03934313EACC13DBD0C4
:100D80004FF00000704700BFD01A01BAB1FA81F1EC
:100D900001F0180122FA01F0CB40C1F12001DBB2D1
:100DA000C0B2C01A2CFA01F3D11A914311EAC3114F
:100DB000E6D1704701491820ABBEFEE726000200CD
:100DC00070475FEA400C08BF91F0000F4FEA8C2398
:100DD0004FEAC12243EA51514FEA1C5018BF00F5B7
:100DE000F0404FEA300018BF41F000415FEA6C5C10
:100DF00000F02980BCF1FF3F08BF40F08040704701
:100E0000130C06BF12044FF0100C4FF0000C130E21
:100E100004BF12020CF1080C130F04BF12010CF1F5
:100E2000040C930F04BF92000CF1020CD30F04BF0B
:100E300052000CF1010C11464FF00002A0F11F000E
:100E4000A0EB0C00704711F0004F08BF704731F065
:100E500000413FF4D5AF0B0C06BF09044FF0100C56
:100E60004FF0000C0B0E04BF09020CF1080C0B0F25
:100E700004BF09010CF1040C8B0F04BF89000CF1B5
:100E8000020CCB0F04BF49000CF1010CCCF1200384
:100E9000A0EB0C0022FA03F302FA0CF241EA030180
:100EA00000F10100704720F07F4C80EA030023F03E
:100EB0007F47ACEB070303F57C5300F0004003F1E0
:100EC000FF032DE980494FEA154B09B44FEA14435B
:100ED00025EA0B4E24EA03480FF2042606EB1327FB
:100EE00049083E785FEA320203FB0667C7F5000750
:100EF00007FB06F64FEA54374FEAD64606F10206DC
:100F000007FB066CCCF1005C4FEA1C472CEA074C4F
:100F100007FB06F40CFB06F504EB15464FEA9616A4
:100F200034BF00204FF000404FEAD13706FB07FCEA
:100F30004FEA1C4C0CFB0BF7D21B03FB0CF761EBCD
:100F400007010CFB0EF7B0EB074072EB17420CFBEE
:100F500008F734BFA2EB0742B2EB074261EB17413F
:100F60004FEA0C444FEA910706FB07FC4FEA1C4C82
:100F70000CFB0BF7B0EBC74072EB573203FB0CF7DF
:100F800034BFA2EBC742B2EBC74261EB57310CFB57
:100F90000EF7B0EBC70072EB57720CFB08F734BFCB
:100FA000A2EBC702B2EBC70261EB5771039F4FEA96
:100FB000816141EA921104EBCC044FEAD1374FEA48
:100FC000826206FB07FC42EA90124FEA80604FEA19
:100FD0001C4C0CFB0BF7D21B03FB0CF761EB07015E
:100FE0000CFB0EF7B0EB074072EB17420CFB08F757
:100FF00034BFA2EB0742B2EB074261EB17414FEA65
:101000008C554FEA910704EB9C2406FB07FC4FEA42
:101010001C4C0CFB0BF7B0EBC74072EB573203FBD9
:101020000CF734BFA2EBC742B2EBC74261EB5731BA
:101030000CFB0EF7B0EBC70072EB57720CFB08F716
:1010400034BFA2EBC702B2EBC70261EB577115EBDD
:101050004C254FEA816141EA92114FEA82624FEAE0
:10106000D13742EA901206FB07FC44F100044FEA34
:1010700080604FEA1C4C0CFB0BF7D21B03FB0CF7F8
:1010800061EB07010CFB0EF7B0EB074072EB174268
:101090000CFB08F734BFA2EB0742B2EB074261EB4F
:1010A000174115EB1C154FEA813141EA92414FEA95
:1010B000823242EA90424FEA80304FEA0C7644F1A5
:1010C000000448EA03434EEA0B484FF0000EB2EB2F
:1010D000080C71EB030724BF624639464EEB0E0E37
:1010E0004FF0000B0018524149414BEB0B0BB2EB98
:1010F000080C71EB03077BF1000B24BF62463946F5
:101100004EEB0E0E4FF0000B0018524149414BEBD5
:101110000B0BB2EB080C71EB03077BF1000B24BF48
:10112000624639464EEB0E0E51EA020718BF46F0F2
:10113000010616EB0E7655F1000254F1000103D5BD
:10114000BDE88901BDE80088BDE88901BDE8004827
:10115000B619524141EB0101A3F1010370478080B0
:101160007F7E7D7C7B7A7978777676757473727101
:1011700071706F6E6E6D6C6C6B6A6A6968686766B9
:1011800066656464636362616160605F5F5E5E5D4B
:101190005D5C5C5B5B5A5A595958585757565655BF
:1011A00055555454535352525251515050504F4F21
:1011B0004F4E4E4D4D4D4C4C4C4B4B4B4A4A4A4971
:1011C00049494848484747474746464645454544B4
:1011D0004444444343434342424242414141002B41
:1011E0009C4630D477002BD01CB54FEA370703B4A8
:1011F0004FF010004FF01001BAF1000F06D0BCF113
:10120000000FDCBF40F0080040F008014FF0000084
:101210000FBCBDE810400BF1010BBBF1010F08BF83
:101220005FEA170722BF12F1010211F101014FF02D
:10123000004143F1000300F0004043EA0000704722
:10124000F9D35708D0E746EA064613F1400F4FEAB4
:1012500016461FDD13F1200FDFBF16430A4600219B
:1012600020335B42BED0C3F1200746EA064602FAAD
:1012700007F74FEA164646EA0706C3F1200722FAA7
:1012800003F201FA07F721FA03F14FF0000342EAF3
:101290000702A7E746EA020646EA06464FEA16466E
:1012A00046EA0106BCBF46EA0646360C4FF000038C
:1012B0004FF000024FF0000194E72DE9804C9A4670
:1012C000934670B491E8380007C831EA400C48BF33
:1012D00034EA430C03D5FFF7E6FDFFF780FFF0BCCF
:1012E000BDE8008C2DE9804C9A46934670B491E895
:1012F000380007C810F0804F08BF13F0804F03D1AB
:1013000000F005F8FFF76BFFF0BCBDE8008C20F0A3
:101310007F4780EA030023F07F4C07EB0C03A3F523
:101320007C5300F00040A3F1FE0392F0000F00F0A8
:10133000B38095F0000F00F077802DE901494FEA66
:1013400011404FEA144621EA004800FB06FC24EA5B
:10135000064708FB06F607FB08F800FB07F718EB43
:1013600006484CEB164C4FEA124B18EB07484FEA75
:1013700015464CEB174022EA0B4E0BFB06FC25EA08
:1013800006470EFB06F607FB0EFE0BFB07F71EEBF0
:10139000064E4CEB164C4FF000061EEB074E4CEB86
:1013A000174B18EB0B0840F1000018EB0E0B58EB35
:1013B000000840F100008F1A4FF000013CBFC94304
:1013C000661B14BFB5EB040C00213CBFC943F61BE0
:1013D0004FEA17444EEA8E0E27EA04454FEA1C47AF
:1013E00004FB07622CEA074C05FB07F70CFB05F62C
:1013F00004FB0CFC16EB074642EB174216EB0C46BF
:1014000042EB1C421BEB060658EB0202414146EA46
:101410009E0601D5BDE80189B619524141EB010193
:10142000A3F10103BDE801894FEA14454FEA1147D2
:1014300024EA054621EA074C05FB07F406FB07F7FB
:101440000CFB06F105FB0CFC11EB074144EB1744C8
:101450004FEA124711EB0C4144EB1C4422EA074CC3
:1014600005FB07F206FB07F70CFB06F605FB0CFC79
:1014700016EB074642EB174216EB0C4642EB1C45B7
:101480006A1854F1000148BF7047B619524141EB48
:101490000101A3F10103704795F0000F37D04FEA27
:1014A00011424FEA144721EA024624EA074C02FBA4
:1014B00007F106FB07F70CFB06F402FB0CFC14EB30
:1014C000074441EB17414FEA154714EB0C4441EB3D
:1014D0001C4125EA074C02FB07F506FB07F70CFB4E
:1014E00006F602FB0CFC16EB074645EB174516EB20
:1014F0000C4645EB1C42121951F1000148BF7047E0
:10150000B619524141EB0101A3F1010370474FEAC3
:1015100014454FEA114724EA054621EA074C05FB2A
:1015200007F106FB07F70CFB06F24FF0000605FB80
:101530000CFC12EB074241EB174112EB0C4251EB52
:101540001C4148BF7047921841EB0101A3F1010310
:1015500070470000464910B54A6822F440324A609C
:101560004A6843681A434A6001684A6822F48072F4
:101570004A6001684A68036942EA03224A600168D6
:101580004A6822F040724A6001684A6883681A43D8
:101590004A6001688A6822F400628A6001688A6889
:1015A000C3681A438A60816A6FF07062D142016831
:1015B0008A6822F070628A6001688A680CD0836A47
:1015C0001A438A6001688A6822F040528A60016882
:1015D0008A68C36A1A4301E022F040528A600168B7
:1015E0008A6822F002028A6001688A68037E42EA01
:1015F00043028A6090F82010002901684A680FD0E1
:1016000042F400624A6001684A6822F460424A601B
:1016100001684A68174C436A04EB43331A4301E0FC
:1016200022F400624A600168CA6A22F47002CA6247
:101630000168CA6A838B104C04EB03531A43CA62D5
:1016400001688A6822F400728A6001688A6890F8EA
:10165000303042EA43228A6001688A6822F480625C
:101660008A6001688A68406942EA8020886010BD0B
:101670000023014000E0FFFF0000F0FFFEE7000054
:10168000F0B52DED028B8BB00446DFED868A20216C
:1016900003A8B0EE688AFEF76EFF0B2002F0F4FAA2
:1016A000642000F02DFB00EE100AF8EE400A00EE78
:1016B000104AB8EE400A80EE801A9FED7B0A7C4803
:1016C0007A4D018805EB8102491C89B2642921EE1B
:1016D000000A82ED000A01807DD300240480642189
:1016E000284603F072FB0A2005EB8001401C91EDB7
:1016F000000A80B25A2830EE088AF5D3DFED6D0A71
:101700006D4988EE200A10EE100A884203DBC5ED11
:10171000598AC5ED0A8ADFED690A20EE201ABCEE6F
:10172000C11A11EE100A80B201EE100AF8EE411A49
:101730009FED631A31EE402A81EE820AD5ED591AE7
:1017400021EEA02A71EE611A82EE218AD5ED0A1AE5
:10175000B5EEC00A61EEA00A31EE611AC0EE818AD0
:10176000F1EE10FA01D2B1EE400A10EE100A55491E
:1017700020270C254FF47846884255DCB5EEC00A88
:10178000F1EE10FA50DBB5EEC08AF1EE10FA4BDB49
:10179000F5EEC08AF1EE10FA46DBBCEEC00A4AA1B3
:1017A00010EE100A82B203A8FEF7E6FDCDE900476D
:1017B000334603AA2C211220029403F09FF8202123
:1017C00003A8FEF7D8FEBCEEC80A40A110EE100A2E
:1017D00082B203A800E060E0FEF7CEFDCDE900454F
:1017E000334603AA73210820029403F087F82021CE
:1017F00003A8FEF7C0FEBCEEE80A34A110EE100A02
:1018000082B203A8FEF7B8FDCDE90045334603AA2E
:1018100073213C20029403F071F8202103A8FEF705
:10182000AAFE01F0A7FD36E029A103A8FEF7A4FD5A
:10183000CDE90047334603AA2C211220029403F07D
:101840005DF8202103A8FEF796FE22461FA103A8FB
:10185000FEF792FDCDE90045334603AA7321082027
:10186000029403F04BF8202103A8FEF784FE2246E1
:1018700016A103A8FEF780FDCDE90045334603AA73
:1018800073213C20029403F039F8202103A8FEF7CD
:1018900072FE00F037F800F01FF80BB0BDEC028BC1
:1018A000F0BD00000000000048E19A3F1801002050
:1018B000200000200000A042333353400000C84203
:1018C000355E52400000A041253464002535640097
:1018D000202E4F4C000000009FED070A0749002012
:1018E00001EB8002401CC0B282ED000A6428F7D3ED
:1018F0000349002008807047000000001801002004
:101900002000002000224FF48071014800F015BD36
:101910000008024001221021014800F00EBD000025
:1019200000040240704700002DE9F0412DED028BCC
:101930008CB00446DFED6C8A202103A8B0EE688AE3
:10194000FEF719FE0B2002F09FF9C82000F0D8F92D
:1019500000EE100AF8EE400A00EE104AB8EE400A17
:1019600080EE801A9FED610A6248614D018805EBA7
:101970008102491C89B2642921EE000A82ED000A25
:1019800001807DD3002404806421284603F01DFAE1
:101990005FF00A0005EB8001401C91ED000A80B267
:1019A0005A2830EE088AF5D3DFED530A5349202731
:1019B00088EE200A0C264FF4784810EE100A884270
:1019C00039DBC5ED598AC5ED0A8A4DA103A8FEF79A
:1019D000D3FCCDE900474746434603AA2C211220F9
:1019E000029402F08BFF202103A8FEF7C4FD95EDC1
:1019F000590A45A1BCEEC00A10EE100A82B203A833
:101A0000FEF7BAFCCDE900463B4603AA7321082045
:101A1000029402F073FF202103A8FEF7ACFD95EDC0
:101A20000A0A39A1BCEEC00A10EE100A82B203A85D
:101A3000FEF7A2FC43E0DFED350A30EEC00A10EEFF
:101A4000100A03F061FB41EC100B31A153EC102B99
:101A500003A8FEF791FCCDE900474746434603AA99
:101A600028211420029402F049FF202103A8FEF748
:101A700082FDD5F8640103F047FB41EC100B00E058
:101A80002CE053EC102B22A103A8FEF775FCCDE946
:101A900000463B4603AA73210820029402F02EFF61
:101AA000202103A8FEF767FDA86A03F02DFB41EC97
:101AB000100B17A153EC102B03A8FEF75DFCCDE92A
:101AC00000463B4603AA73213C20029402F016FF15
:101AD000202103A8FEF74FFDFFF7FEFE0CB0BDEC82
:101AE000028BBDE8F08100000000000048E19A3F51
:101AF00018010020200000200000A04200005040FB
:101B0000202E4F4C00000000253564005C8F5240B1
:101B100025342E326600000000221021014800F01A
:101B20000CBC000000040240F0B52DED028B8BB020
:101B300004469FED668A202103A8FEF71CFD0D20B8
:101B400002F0A2F8C82000F0DBF800EE100AF8EE70
:101B5000400A00EE104AB8EE400A80EE801A9FED6F
:101B60005C0A5D485B4C018804EB8102491C89B228
:101B7000642921EE000A82ED000A01807ED300254F
:101B800005806421204603F020F90A2004EB80013F
:101B9000401C91ED000A80B25A2830EE088AF5D335
:101BA000DFED4E0A4E4988EE200A10EE100ADFEDF6
:101BB0004D0A88420CDD94ED591A30EE600A31EE80
:101BC000601A84ED591A94ED0A1A71EE600A0BE05E
:101BD00094ED591A30EEC00A30EEC11A84ED591A4C
:101BE00094ED0A1A70EEC10AC4ED0A0ADFED3E0A4E
:101BF000C0EE201A9FED3D1A94ED592A81EE810A1C
:101C0000DFED3B1A20EE210ABCEEC00A10EE100AEE
:101C100082EE200A0B3882B203A880EE012A22EE5F
:101C2000210A94ED0A2ABCEEC00A10EE101A82EEC8
:101C3000200A0B398CB22FA1C0EE010A20EEA10AB6
:101C4000BCEEC00A10EE103A0B3B9EB2FEF794FBBE
:101C50002020CDE900504FF478473B4603AA2821C5
:101C60001220029502F04AFE202103A8FEF783FC11
:101C7000224621A103A8FEF77FFB00E021E00C240F
:101C8000CDE900543B4603AA73210820029502F0D7
:101C900035FE202103A8FEF76EFC324616A103A8EC
:101CA000FEF76AFBCDE900543B4603AA73213C20B2
:101CB000029502F023FE202103A8FEF75CFCFFF74B
:101CC0000BFE0BB0BDEC028BF0BD0000000000006D
:101CD00048E19A3F18010020200000200000A042A7
:101CE000B81ED53FB81ED53F000048420AD7233C56
:101CF00000007A44253464002535640072B6FEE79E
:101D00002DE9F047002680463746354642F20F74EB
:101D10001DE000BF4FF00009124800F081F93221A8
:101D2000104800F027F90F4800F0C4F8800504D5EA
:101D30000C4800F0C1F81FFA80F94846844200D9E7
:101D40004C46854200D20546761C0744B6B246454D
:101D5000E0D3781B001BA8F10201B0FBF1F080B2C8
:101D6000BDE8F0872400002078B50024009490F8A6
:101D70003C20012A19D0012280F83C200A68072360
:101D80000568092A13D9EE680A3A02EB4202934029
:101D90009E43EE600B788A680A3B03EB43039A404C
:101DA0000368DD682A43DA6010E0022078BD2E69FE
:101DB00002EB420293409E432E610B788A6803EB4C
:101DC00043039A4003681D692A431A614A681F2326
:101DD000072A13D205686E6B521E02EB82029340F3
:101DE0009E436E630B790A885B1E92B203EB8303FA
:101DF0009A4003685D6B2A435A6327E005680D2A01
:101E000012D22E6BD21F02EB820293409E432E63AE
:101E10000B790A88DB1F92B203EB83039A400368B5
:101E20001D6B2A431A6311E0EE6A0D3A02EB82023F
:101E300093409E43EE620B790A880D3B92B203EB0E
:101E400083039A400368DD6A2A43DA62164B056809
:101E5000144A9D4206D10D68122D03D1556845F4F0
:101E60008005556005689D4218D10B68102B01D084
:101E7000112B13D1536843F40003536009681029F0
:101E80000CD10A490A4A0968B1FBF2F101EB810160
:101E9000490000E0491E00910029FBD180F83C4038
:101EA000002078BD00230140002001400C000020EC
:101EB00040420F00006C70470068C06C704770B5FE
:101EC00004004FF0000503D0206C002610B107E09D
:101ED000012070BD204600F01DF8666484F83C6067
:101EE000206CC00610D4206C20F4885040F0020012
:101EF00020642046FFF72EFB6664206C20F0020071
:101F000040F00100206400E0012584F83C60284690
:101F100070BD000010B586B0044614216846FEF777
:101F20002AFB1149206888421CD110480021026810
:101F300042F480720260006800F4807005900B48E3
:101F40001438026842F004020260006800F00400E5
:101F500005900B2000900320CDE90101694604485B
:101F600000F0EEF806B010BD0020014044380240F9
:101F7000000802402DE9F041044600680D468168E2
:101F80004FF0000749050BD58068C00508D5206CC7
:101F900040F02000206484F83C700120BDE8F0810E
:101FA00000F0D0F9064613E0681C11D025B100F00E
:101FB000C9F9801BA8420BD920680068800707D4A4
:101FC000206C40F00400206484F83C700320E5E7B6
:101FD000206800688007E7D521686FF0120008606C
:101FE000206C40F4007020642068816811F0405F2C
:101FF00013D1217E89B9C16A11F4700F02D08068B3
:1020000040050AD4206C20F480702064206CC00449
:1020100003D4206C40F0010020640020BEE70000E3
:1020200018B50021009190F83C20012A07D0012228
:1020300080F83C2002689368DB0702D011E00220A0
:1020400018BD936843F0010393602E4A2E4B12682B
:10205000B2FBF3F202EB420200E0521E0092002AB1
:10206000FBD102689368DB0742D0036C40F2016445
:10207000A34343F48073036453685B0505D5036C85
:1020800023F4005343F480530364036CDB0404D54E
:10209000436C23F00603436400E0416480F83C1085
:1020A0001A496FF02203136049680068CA0618498C
:1020B00006D0884224D1816811F0405F13D01FE020
:1020C0008842F8D0134A904203D1D1F80423D206B3
:1020D000F1D0114A904213D1D1F8041301F01F013D
:1020E0001029E8D30CE0816841F08041816007E06D
:1020F000016C41F010010164416C41F00101416447
:10210000002018BD0C00002040420F0000230140B9
:1021100000200140002101400022014070B504462A
:1021200000F010F90546601C02D004480078044411
:1021300000F008F9401BA042FAD370BD0000002057
:102140002DE9F84FDFF8BCA10022012503264FF04E
:102150000F090AF1040BAAF1040E00BF0B6805FA7F
:1021600002F42340A34270D10F7907F00307012F37
:1021700001D0022F16D187684FEA420806FA08FC00
:1021800027EA0C07D1F80CC00CFA08FC4CEA070C43
:10219000C0F808C04768A7430C79C4F30014944002
:1021A0003C4344600C79E443A4070AD0C4684FEA76
:1021B000420C06FA0CF7BC438F6807FA0CF727436A
:1021C000C7600C7904F00304022C12D1D40800EB90
:1021D000840CDCF820405707FF0E09FA07F824EAC0
:1021E0000804D1F8108008FA07F848EA0408CCF887
:1021F000208004684FEA420C06FA0CF7BC430F79C2
:1022000007F0030707FA0CF7274307604C6814F43C
:10221000403F70D03C4C276847F4804727602468D3
:1022200022F0030704F480440094384C07EB040CBC
:10223000DCF8084897074FEA177809FA08F7BC4313
:10224000334FB84202D1002724E054E0314FB84266
:1022500001D101271EE0304FB84201D1022719E019
:102260002E4FB84201D1032714E02D4FB84201D1BF
:1022700004270FE02B4FB84201D105270AE02A4F6F
:10228000B84201D1062705E0284FB84201D10727FF
:1022900000E0082707FA08F72743CCF80878DAF8AF
:1022A00000405746D1F804C09C435FEACC2C00D5CF
:1022B0001C433C60DBF800405F46D1F804C09C43FF
:1022C0005FEA8C2C00D51C433C60DEF8004077466A
:1022D000D1F804C09C435FEA8C3C00D51C433C60B1
:1022E000084F083F3C68D1F804C09C435FEACC3CEF
:1022F00000D51C433C60521C102AFFF42FAFBDE8F0
:10230000F88F0000083C0140443802400030014092
:10231000000002400004024000080240000C02409D
:10232000001002400014024000180240001C02404D
:102330000069084000D0012070470AB181617047F0
:102340000904FBE701488068704700000000002096
:1023500070B5040011D021684CF6CC4008602168AB
:1023600045F255500860D4E9000141602168A06839
:102370008860FFF7E7FF05460DE0012070BD00BF54
:10238000FFF7E0FF401B312805D92068C0688007AF
:1023900001D0032070BD2068C0688007F0D121689B
:1023A0004AF6AA200860002070BD00684AF6AA21FB
:1023B00001600020704700000248816802781144E3
:1023C00081607047000000200B4810B5016841F49F
:1023D00000710160016841F480610160016841F4AD
:1023E00080710160032000F06FF80F2000F006F804
:1023F00000F024F8002010BD003C024070B50D4DE7
:1024000004464FF47A712878B1FBF0F00A49096864
:10241000B1FBF0F000F02FFC48B9102C07D20022DD
:102420002146501E00F030F800206C6070BD012085
:1024300070BD0000000000200C0000200A4808B514
:10244000016841F480410160006800F48040009020
:102450000548001F016841F080510160006800F0EC
:102460008050009008BD000044380240002809DB7D
:1024700000F01F02012191404009800000F1E0209E
:10248000C0F8001170470000F0B40E4B1B680C46FA
:10249000C3F30223C3F10705042D00D90425191D38
:1024A000072901D2002300E0DB1E012606FA05F110
:1024B000491E214099409E40761E16403143F0BC93
:1024C00002F06CBC0CED00E0064900F00702086861
:1024D0004FF6FF03184040EA0220034A1043086009
:1024E000704700000CED00E00000FA052DE9F04710
:1024F0000E46050065D0DFF81481D8F80000F7B269
:1025000000F00700B04207D288F80070D8F8000049
:1025100000F00700B04254D128683D4C810712D525
:10252000400703D5206840F4E05020602878000779
:1025300003D5206840F4604020602068A96820F03E
:10254000F000084320602878C0072DD03049686823
:102550000839012812D0022813D0032811D00968A5
:10256000890700292DDA216821F003010143216048
:10257000FFF7E8FE814641F2883A0EE009688903D8
:10258000EFE709688901ECE7FFF7DCFEA0EB090142
:10259000514502D90320BDE8F0872068696800F042
:1025A0000C00B0EB810FEFD1D8F80010404601F0DD
:1025B0000701B14207D90770006800F00700B04278
:1025C00001D00120E7E72878400705D52068E968B1
:1025D00020F4E050084320602878000706D52068E2
:1025E000296920F4604040EAC100206000F018F83A
:1025F0002168084AC1F30311515CC84006490860CC
:1026000006480068FFF7FAFE0020C4E7003C0240DD
:1026100008380240F85100080C0000200400002097
:10262000154810B5006810F00C02144813D0411082
:10263000042A0FD0082A0ED10F4C241F22682368C9
:1026400002F03F025B0207D52068C0F38810A0FBB0
:10265000010106E0084610BD2168C1F38811A1FB05
:1026600000010023FDF710FE2168C1F30141491C60
:102670004900B0FBF1F010BD083802400024F4001E
:102680002DE9F84F04006ED02078DFF84C93C00796
:10269000A9F104054AD009F104000168C1F38101E0
:1026A000012908D00068C0F3810002280AD1D9F8B6
:1026B0000000400206D52868800337D560680028EE
:1026C000E1D033E06068B0F5803F10D0B0F5A02FC6
:1026D000286810D020F480302860286820F48020FA
:1026E00028606068A8B1FFF72DFE06460DE0286857
:1026F00040F48030F4E740F480202860F7E700BF22
:10270000FFF720FE801B642873D828688003F7D564
:102710000CE0FFF717FE064605E000BFFFF712FECC
:10272000801B6428F0D828688003F7D42078DFF86D
:10273000AC8280074FF0000A3ED5A748001D016813
:1027400011F00C0F08D00068C0F3810002280BD1F3
:10275000D9F80000400207D42868800716D5E06841
:10276000012800D112E033E1E068B8B10120C8F8D7
:102770000000FFF7E7FD064605E000BFFFF7E2FDBA
:10278000801B0228C0D828688007F7D528682169EF
:1027900020F0F80040EAC10028600DE0C8F800A071
:1027A000FFF7D0FD064604E0FFF7CCFD801B0228B2
:1027B0001FD828688007F7D42078000722D5864FD5
:1027C00087486169703771B101210160FFF7BAFD77
:1027D000064604E0FFF7B6FD801B022809D83868DA
:1027E0008007F7D50EE0C0F800A0FFF7ABFD064666
:1027F00005E082E0FFF7A6FD801B02287DD838683F
:102800008007F7D42078400768D5DFF8CCB10027DF
:102810000BF13C0BDBF80000C0000BD4DBF8001020
:1028200041F08051CBF80010DBF80000012700F0E8
:10283000805000906B4E3068C00510D4306840F472
:1028400080703060FFF77EFD009005E0FFF77AFDB5
:102850000099401A022850D83068C005F6D55E4E5F
:10286000A0686C3601280FD00528306810D020F001
:1028700001003060306820F004003060A068B8B11A
:10288000FFF760FD00900FE0306840F00100F4E7D2
:1028900040F004003060F7E7FFF754FD0099411A5B
:1028A00041F28830814266D830688007F4D50EE066
:1028B000FFF748FD009007E0FFF744FD0099411A3B
:1028C00041F28830814256D830688007F4D42FB165
:1028D000DBF8001021F08051CBF80010A069C8B3DC
:1028E0003D49091D0968C1F3810102294AD0022826
:1028F000504607D0C8F8600000E03CE0FFF722FD3A
:1029000004463BE04746C8F86000FFF71BFD06465B
:1029100005E000BFFFF716FD801B02282BD82868B2
:102920008001F7D4D4E907010843A16A2E4A490877
:1029300002EB0141626A41EA8211084394F82C10CB
:1029400040EA0161C9F8001001203866FFF7FAFC7F
:10295000044606E03EE000BFFFF7F4FC001B02283F
:1029600009D828688001F7D534E000BFFFF7EAFCFA
:10297000001B022802D90320BDE8F88F28688001D7
:10298000F4D427E00128F7D0D9F80000E26900F478
:10299000800191421CD1226A00F03F01914217D17F
:1029A00047F6C071626A0140B1EB821F10D1A26A82
:1029B0004FF0FF3300F4403103EB5202B1EB024F12
:1029C00006D194F82C1000F07060B0EB016F01D0CC
:1029D0000120D1E70020CFE7043802400000474241
:1029E000800E4742007000400000FFFF70B50400F9
:1029F00009D0606A002540B125616561A56294F83F
:102A0000510040B10CE0012070BD6068B0F5827FDC
:102A1000F4D0E561F2E784F85050204600F044F825
:102A2000022084F851002068016821F04001016013
:102A3000A088218900F4827001F404410843A1892F
:102A400001F400610843217C01F002010843217D6B
:102A500001F001010843218B01F400710843217F3B
:102A600001F03801084394F8201001F08001084378
:102A7000218D01F40051084321680860A0690421F8
:102A800001EA104094F8241001F010010843216875
:102A900048602068C16921F40061C1616565012059
:102AA00084F85100002070BD10B586B00446142192
:102AB0006846FDF760FD13492068884220D112481E
:102AC0000021026842F480520260006800F48050E5
:102AD00005900D481438026842F001020260006857
:102AE00000F001000590A02000900220CDE9010136
:102AF000032003900520049069460448FFF720FB5B
:102B000006B010BD003001404438024000000240D1
:102B10002DE9F84F984616468A460446FFF712FC00
:102B2000814694F8510001281ED1BAF1000F73D0EC
:102B3000002E71D094F85000012815D0012784F898
:102B40005070032084F8510000256565C4F830A05A
:102B5000A686E686A563A587E58765642564A068E3
:102B6000B0F5004F03D00CE00220BDE8F88F2068DC
:102B7000016821F0400101602068016841F4804152
:102B8000016020680168490603D4016841F04001F2
:102B90000160E068B0F5006F606803D048B3012EB3
:102BA00027D047E008B1012E1FD1206B2168008893
:102BB000C86006E020688168890709D5216B09880B
:102BC000C160206B801C2063E08E401EE0860CE01C
:102BD000FFF7B8FBA0EB0901414503D3B8F1FF3F74
:102BE00003D035E0B8F1000F32D0E08E0028E1D1FB
:102BF00023E0206B21680078087306E02068816874
:102C000089070AD5216B09780173206B401C20636A
:102C1000E08E401EE0860DE02BE0FFF793FBA0EB7B
:102C20000901414503D3B8F1FF3F03D010E0B8F1EB
:102C3000000F0DD0E08E0028E0D14A4641462046E4
:102C400000F08EFF08B120206065A06830B109E077
:102C500084F8517084F85050032086E72068C168DA
:102C60008068009084F8517004F8505F6068002814
:102C7000F3D0012079E710B5401EB0F1807F01D379
:102C8000012010BD4FF0E02460610F21601702F0B9
:102C900085F80020A06107202061002010BD70474A
:102CA0007047000070B590F83C20012A32D0012412
:102CB00080F83C40022280F83D2003685A689D68F5
:102CC00022F070060A6832435A60134B02689A4237
:102CD00014D0B2F1804F11D0104B9A420ED0104B4D
:102CE0009A420BD00F4B9A4208D00F4B9A4205D014
:102CF0000E4B9A4202D00E4B9A4204D1496825F0FD
:102D000080031943916080F83D40002180F83C1019
:102D1000084670BD022070BD000001400004004064
:102D200000080040000C0040000401400040014049
:102D30000018004010B5040003D094F83D0010B115
:102D400007E0012010BD002084F83C00204600F080
:102D50001FF8022084F83D00211D206801F04CFE80
:102D6000012084F8460084F83E0084F83F0084F88F
:102D7000400084F8410084F8420084F8430084F85D
:102D8000440084F8450084F83D00002010BD000098
:102D900008B500680B49884212D10B48016841F020
:102DA000020101600068002200F0020000900E2184
:102DB0001D20FFF769FBBDE808401D20FFF756BB4B
:102DC00008BD0000000400404038024090F83D106B
:102DD000012901D001207047022180F83D100168CF
:102DE000CA6842F00102CA6000681149884214D0E2
:102DF000B0F1804F11D00F4988420ED00E49884261
:102E00000BD00E49884208D00D49884205D00D49A3
:102E1000884202D00C49884204D1816801F0070140
:102E2000062903D0016841F00101016000207047CC
:102E3000000001400004004000080040000C004079
:102E400000040140004001400018004070B50446F5
:102E500090F83C000025012817D0012684F83C603A
:102E6000022084F83D002068826822F0770222F474
:102E70007F4282600868502838D00DDC20284FD06F
:102E800005DC90B3102811D14AE0022070BD302833
:102E900046D040280AD13BE060282FD070280DD0C2
:102EA000B0F5805F03D0B0F5005F12D0012584F843
:102EB0003D60002084F83C00284670BDCB68D1E915
:102EC0000121206801F004FE2068816841F077014B
:102ED00009E0CB68D1E90121206801F0F9FD206803
:102EE000816841F480418160E1E719E0CA6849687E
:102EF000206801F0FFFD5021206806E0CA6849689B
:102F0000206801F008FE6021206801F0EBFDCEE7AB
:102F1000CA684968206801F0EDFD40212068F4E7A7
:102F2000226801461046F0E770472DE9F04104465B
:102F30000068C66805694FF00007A90713D5B107F7
:102F400011D5F91E01610120207720688069800772
:102F5000204602D0FFF7E8FF04E000F07EF82046AC
:102F600000F07CF82777680716D5700714D521681C
:102F70006FF004000861022020772068806910F457
:102F8000407F204602D0FFF7CFFF04E000F065F855
:102F9000204600F063F82777280715D5300713D5AA
:102FA00021686FF008000861042020772068C0695C
:102FB0008007204602D0FFF7B7FF04E000F04DF88D
:102FC000204600F04BF82777E80616D5F00614D512
:102FD00021686FF010000861082020772068C06920
:102FE00010F4407F204602D0FFF79EFF04E000F07F
:102FF00034F8204600F032F82777E80708D0F007C9
:1030000006D021686FF001000861204600F028F822
:10301000280608D5300606D521686FF080000861C3
:103020002046FFF73CFE680608D5700606D52168E5
:103030006FF040000861204600F02EF8A8060AD57F
:10304000B00608D521686FF0200008612046BDE871
:10305000F041FFF725BEBDE8F081704770470000E2
:1030600000680B49884211D10A480188491C018037
:10307000038842F2107100228B4200D30280438801
:103080005B1C438043888B4200D342807047000022
:10309000000400401C0000207047FEE71FB500211F
:1030A0001648009101910291134A039102604FF476
:1030B0008032C0E901210161017680F82010104AB8
:1030C000C0E90A210124C461C16080F83010446164
:1030D000FEF7F5FE08B1FEF711FE0A20CDE9000467
:1030E0000720029069460548FEF73EFE002801D001
:1030F000FEF704FE1FBD0000002001402400002058
:103100000100000F2DE9F04786B014216846FDF755
:1031100032FA4E480024016841F0800101600168E4
:1031200001F080010591016841F00401016001682E
:1031300001F004010591016841F00101016001689D
:1031400001F001010591016841F010010160016881
:1031500001F010010591016841F00801016001686A
:1031600001F008010591016841F002010160006869
:10317000374F00F00200059001221B213846FFF76F
:10318000DCF8DFF8D08001224FF434514046FFF7DD
:10319000D4F800224FF450414046FFF7CEF8DFF854
:1031A000B890BE15002231464846FFF7C6F8DFF852
:1031B000ACA0002210215046FFF7BFF81920009064
:1031C0000125CDE90154694638460394FEF7B8FF5E
:1031D0000220CDE900050320CDE9024069463846CA
:1031E000FEF7AEFF04208DE8310069463846FEF751
:1031F000A7FF4FF47D400090CDE901546946404659
:103200000394FEF79DFF0096CDE9015469464846B8
:103210000394FEF795FF68028DE831006946484641
:10322000FEF78EFF08208DE8310069460C48FEF756
:1032300087FF10200090CDE9015469465046039461
:10324000FEF77EFF06B0BDE8F08700003038024090
:10325000000002400010024000080240000402404A
:10326000000C0240094810B5074901600121416086
:103270004FF47A618160FFF76BF8002803D0BDE856
:103280001040FEF73BBD10BD003000406C00002038
:103290000F4810B50D4901604FF482714160002163
:1032A0008160C1604FF400720161C0E90512C16123
:1032B0000162416281620A21C162FFF797FB002827
:1032C00003D0BDE81040FEF719BD10BD003001402D
:1032D0007800002010B586B00024174800940194AF
:1032E0000294039404941349059401605321C0E9A6
:1032F000011440F2E731C0E9031480218161FFF736
:1033000019FD08B1FEF7FAFC4FF4805000906946B1
:103310000948FFF79BFD08B1FEF7F0FC049404A9EF
:1033200005480594FFF7BEFC002801D0FEF7E6FC37
:1033300006B010BD00040040D0000020FEE710B52C
:10334000052809D2DFE800F0030C060C0C0000F0A1
:1033500057F801E000F018F8BDE81040FEF7DCBBBC
:1033600000F030F8FEF7D6FABDE8104000F0A8BB38
:10337000FEE70000012211020148FEF7DEBF000057
:10338000000802407047000070B50D4C00224FF459
:1033900000412046FEF7D1FF00224FF48041204635
:1033A000FEF7CBFFA514002229462046FEF7C5FFF5
:1033B00029462046BDE870400122FEF7BEBF00004E
:1033C0000010024070B50D4C00224FF40041204621
:1033D000FEF7B3FF4FF48045002229462046FEF752
:1033E000ACFF0022A1142046FEF7A7FF2946204685
:1033F000BDE870400122FEF7A0BF000000100240AF
:1034000070B50C4D4FF40044002221462846FEF7CB
:1034100094FF002261102846FEF78FFF0022E11082
:103420002846FEF78AFF21462846BDE87040012263
:10343000FEF783BF001002402DE9F04F2DED048B05
:103440008BB00C460746DFEDFE9A202103A8B0EEB4
:10345000699AFDF790F80B2000F016FCC820FEF7E3
:103460004FFC00EE100AF8EE400A00EE104AB8EEEB
:10347000400A80EE801A9FEDF30AF448DFF8C88313
:10348000018808EB8102491C89B2642921EE000AF7
:1034900082ED000A01807CD3002404806421404630
:1034A00001F093FC5FF00A0008EB8001401C91EDF5
:1034B000000A80B25A2830EE099AF5D3DFEDE40A0B
:1034C0007878DFF8949389EE200ADFEDE20A4FF076
:1034D000200A4FF0180B4FF478460C2548B1DF490D
:1034E0009FEDDF1A01287CD002287BD003287AD0F8
:1034F00000E210EE100ADB49884203DD00F016FB03
:1035000001209EE09FEDD81A60EE011A30EEC00A4D
:1035100081EE802AD8ED591ABCEEC20A21EE812A2A
:1035200070EEE11A10EE100AC2EE212A98ED0A2A76
:1035300080B200EE100A22EE011A70EEC20AB8EE56
:10354000400A81EE202AFCEEE21A11EE900A80B2C7
:1035500001EE900AF8EE611AFCEEC20A10EE900A33
:1035600080B200EE900AB8EE601AF2EE000A30EE79
:10357000600A31EEE08A71EE608A10EE100A48456A
:103580002EDCB5EEC00AF1EE10FA29DBBCEEC00A63
:1035900000E0B1E110EE100AB4A182B203A8FCF77A
:1035A000EBFECDE9004A334603AA2C2112200294F7
:1035B00001F0A4F9202103A8FCF7DDFFACA103A8CA
:1035C000FCF7DAFECDE9004B4FF6E07303AA662163
:1035D0007C20029401F092F9202103A8FCF7CBFF94
:1035E00002E027E09EE00DE118EE100A484503DCFA
:1035F00018EE900A48457DDD7CE100BFBCEEC80AAC
:103600009AA110EE100A82B203A8FCF7B5FECDE92C
:103610000045334603AA73210820029401F06EF995
:10362000202103A8FCF7A7FFBCEEE80A10EE100A61
:1036300082B24DE110EE100A884204DD00F05CFA1F
:103640000220787066E160EE011A30EEC00A894F00
:1036500081EE802AD8ED591A70EEE12ABCEEC20A3A
:1036600021EE812A10EE100AC2EE221A98ED0A2AE3
:1036700080B200EE100A62EE012A70EEC20AB8EEC5
:10368000400A82EEA01AF2EE020A30EE600A31EE33
:10369000E08A10EE100AB84271EE608A2EDCB5EEB8
:1036A000C00AF1EE10FA29DBBCEEC00A6FA110EEE1
:1036B000100A82B203A8FCF75FFECDE9004A334648
:1036C00003AA2C211220029401F018F9202103A84A
:1036D000FCF751FF66A103A8FCF74EFECDE9004BB5
:1036E0004FF6E07303AA66217C20029401F006F9EC
:1036F000202100E00AE003A8FCF73DFF18EE100AC5
:10370000B8420EDC18EE900AB842FADCB5EEC08A78
:10371000F1EE10FA05DBF5EEC08AF1EE10FABFF615
:103720006DAFE7E010EE100A884203DD00F0ACF95F
:10373000032086E7DFED501A60EE212A30EEC00A42
:1037400082EE802A98ED590A20EE213A30EEC00A26
:10375000C3EE002A98ED0A0A20EE213A30EEC00AA4
:10376000C3EE001A9FED450A72EEC00A32EE402AFF
:1037700080EE818A71EEC01A82EE010AC1EE818A62
:1037800010EE100A484504DCB5EEC00AF1EE10FA5E
:103790007CDA18EE100A484579DC18EE900A4845A4
:1037A00075DC00BFB5EEC08AF1EE10FA6FDBF5EE06
:1037B000C08AF1EE10FA6ADB18EE100A01F0A4FCE0
:1037C00041EC100B2EA153EC102B03A8FCF7D4FDF9
:1037D000CDE90045334603AA73210820029401F085
:1037E0008DF8202103A8FCF7C6FE18EE900A01F020
:1037F0008BFC41EC100B22A153EC102B03A8FCF71F
:10380000BBFD6AE010EE100A1F4988427ADB2246AF
:1038100016A103A8FCF7B0FDCDE9004A334603AA80
:103820002C211220029401F069F8202103A8FCF752
:10383000A2FE0FA103A8FCF79FFDCDE9004B27E0F6
:103840000000000048E19A3F1801002020000020FD
:103850000000A042355E524000007A440000404023
:1038600000007A44000020400000C8422535640072
:103870002052000000401C4600401C469A99C54159
:1038800025342E31660000005C8F524075E031E037
:103890004FF6E07303AA66217C20029401F02EF813
:1038A000202103A8FCF767FE2246AFF2400103A8DF
:1038B000FCF762FDCDE90045334603AA73210820D9
:1038C000029401F01BF8202103A8FCF754FE2246C5
:1038D000AFF2680103A8FCF74FFDCDE90045334680
:1038E00003AA73213C20029401F008F8202103A8C8
:1038F000FCF741FEFDF7F0FF0BB0BDEC048BBDE81B
:10390000F08FFFE710EE100A5B49884206DC00F0FA
:10391000D7F87C700A20FEF701FCEBE7DFED571AC1
:1039200060EE212A30EEC00A82EE802A98ED590A14
:1039300060EE212A30EEC00A82EE803A98ED0A0A43
:1039400060EE211A30EEC00AC1EE802A9FED4C0ACB
:1039500072EE400A73EE401A81EE818A32EEC02A7E
:1039600080EE810AC2EE018A10EE100A484531DC71
:10397000B5EEC00AF1EE10FA2CDB10EE100A01F0E1
:10398000C3FB41EC100B53EC102BAFF20C1103A84E
:10399000FCF7F2FCCDE9004A334603AA2C211220A1
:1039A000029400F0ABFF202103A8FCF7E4FD35A151
:1039B00003A8FCF7E1FCCDE9004B4FF6E07303AA46
:1039C00066217C20029400F099FF202103A8FCF7D7
:1039D000D2FDDEE6B0EE698A2246F0EE488AAFF20A
:1039E000741103A8FCF7C8FCCDE9004A334603AACA
:1039F0002C211220029400F081FF202103A8FCF763
:103A0000BAFDAFF2941103A8FCF7B6FCCDE9004B68
:103A10004FF6E07303AA66217C20029400F06EFF4B
:103A2000202103A8FCF7A7FD2246AFF2C01103A88E
:103A3000FCF7A2FCCDE90045334603AA7321082018
:103A4000029400F05BFF202103A8FCF794FD2246BE
:103A5000AFF2E81103A8FCF78FFCCDE9004533462F
:103A600003AA73213C20029400F048FF202103A800
:103A7000FCF781FD96E600009A99993E0050C347F5
:103A800066662C434B52000010B50C4C012211020B
:103A90002046FEF752FC012291022046FEF74DFC23
:103AA0000122D1022046FEF748FC2046BDE8104026
:103AB00000224FF40051FEF740BC0000001002400D
:103AC00010B50C4C00224FF480712046FEF735FCF7
:103AD000012291022046FEF730FC0122D10220464D
:103AE000FEF72BFC20460122BDE810405103FEF7F3
:103AF00024BC00000010024010B50B4C0122110242
:103B00002046FEF71AFC012291022046FEF715FC22
:103B10000022E1142046FEF710FC20460122BDE8F9
:103B200010405103FEF709BC0010024010B50B4CC9
:103B3000012211022046FEF700FC0022211520463A
:103B4000FEF7FBFB0122D1022046FEF7F6FB2046E2
:103B50000122BDE810405103FEF7EFBB0010024008
:103B6000F8B515460E460B46009204460122022186
:103B700000F02CF8A0B9134813490068B0FBF1F02D
:103B80004FF47A71484300906068B0F5827F0DD1A0
:103B90003346002280212046009500F017F870B1CE
:103BA000606D40F0200060650320F8BD009830B1E2
:103BB000401E009020688068C0430006F6D50020B3
:103BC000F8BD00000C00002000366E012DE9F8431E
:103BD0001E46914688460446089DFEF7B3FB401BEF
:103BE000351AFEF7AFFB074625480068C0F3CB3017
:103BF000684338E0701C37D0FEF7A4FBC01BA84216
:103C000003D215B1009860B32CE02068416821F020
:103C1000E00141606068B0F5827F0BD1A068B0F52B
:103C2000004F02D0B0F5806F04D12068016821F008
:103C300040010160A06AB0F5005F09D12068016809
:103C400021F4005101602068016841F400510160D5
:103C5000012084F85100002084F850000320BDE8C2
:103C6000F8830025401E00902068816838EA010032
:103C700004D000214945BDD10020F0E70121F9E73A
:103C80000C000020704700001FB5002100900120AB
:103C900001900720CDE9020169460448FEF764F867
:103CA000002801D0FEF72AF81FBD000024000020E4
:103CB000FEF782BB30B593B030216846FCF75BFC61
:103CC00014210CA8FCF757FC1E480025016841F0A0
:103CD00080510160006800F0805011901A4801681E
:103CE00041F4804101600068022400F4804011909A
:103CF000092000904FF4803001900120CDE90504A7
:103D00008005079008AA0420A82182E813000B90E0
:103D10006846FEF7B5FC08B172B6FEE70CA90F20A5
:103D200081E831004FF4A0500F904FF48050109074
:103D300005210CA8FEF7DAFB002801D072B6FEE7D9
:103D400013B030BD403802400070004002480168A6
:103D500041F470010160704788ED00E02DE9F04109
:103D600004461D4616460F462A2000F01DFE20463A
:103D700000F0E2FD304600F0DFFD2B2000F014FEE5
:103D8000384600F0D9FD284600F0D6FDBDE8F041E8
:103D90002C2000F009BE2DE9FE4F4FF00009CDE9BF
:103DA0000010161A5D1AC8464F46CB46CA464FF059
:103DB000FF30002E02DD4FF0010B03E002D08346FE
:103DC000C6F10006002D02DD4FF0010A03E002D02B
:103DD0008246C5F10005AE4201DD344600E02C46C6
:103DE000601C02901BE000980C9A81B2019880B28E
:103DF00000F01AF8B0442F44A04505DD0199A8EB66
:103E0000040801EB0B000190A74204DD00993F1B61
:103E100001EB0A00009009F101001FFA80F90299F4
:103E20008945E0DBBDE8FE8F10B514460B4602461F
:103E3000FFF794FF2046BDE8104000F07DBD2DE95E
:103E4000F04780461F46581E83B21646501E82B267
:103E50000C464046DDF82090FFF780FF0AE045461B
:103E600004E0484600F068FD6D1CADB2B542F8D3E1
:103E7000641CA4B2BC42F2D3BDE8F08710B57E4CFE
:103E8000002208212046FEF758FA6420FEF746F982
:103E9000012208212046FEF750FA6420FEF73EF981
:103EA000012211462046FEF748FA6420FEF736F953
:103EB000112000F079FD7820FEF730F9B12000F0F4
:103EC00073FD052000F058FD3C2000F055FD3C201E
:103ED00000F052FDB22000F067FD052000F04CFD1F
:103EE0003C2000F049FD3C2000F046FDB32000F0EE
:103EF0005BFD052000F040FD3C2000F03DFD3C2036
:103F000000F03AFD052000F037FD3C2000F034FDC4
:103F10003C2000F031FDB42000F046FD032000F00D
:103F20002BFDC02000F040FD282000F025FD0820DA
:103F300000F022FD042000F01FFDC12000F034FD40
:103F4000C02000F019FDC22000F02EFD0D2000F071
:103F500013FD002000F010FDC32000F025FD8D2092
:103F600000F00AFD2A2000F007FDC42000F01CFD2F
:103F70008D2000F001FDEE2000F0FEFCC52000F0D9
:103F800013FD1A2000F0F8FC362000F00DFDA020F3
:103F900000F0F2FCE02000F007FD042000F0ECFC53
:103FA000222000F0E9FC072000F0E6FC0A2000F0E7
:103FB000E3FC2E2000F0E0FC302000F0DDFC2520AA
:103FC00000F0DAFC2A2000F0D7FC282000F0D4FC16
:103FD000262000F0D1FC2E2000F0CEFC3A2000F08C
:103FE000CBFC002000F0C8FC012000F0C5FC032041
:103FF00000F0C2FC132000F0BFFCE12000F0D4FC74
:10400000042000F0B9FC162000F0B6FC062000F0F9
:10401000B3FC0D2000F0B0FC2D2000F0ADFC2620FC
:1040200000F0AAFC232000F0A7FC272000F0A4FC4D
:10403000272000F0A1FC252000F09EFC2D2000F0A0
:104040009BFC3B2000F098FC002000F095FC012038
:1040500000F092FC042000F08FFC132000F08CFC98
:104060003A2000F0A1FC052000F086FCBDE81040DD
:10407000292000F099BC0000000002402DE9FF4F0C
:1040800081B00446DDF83C904FF000084FEA590734
:1040900000904546780700D0012000EBD70000FBD8
:1040A00009FB203AD0B20390029802994844401E7E
:1040B00083B2E019401E82B22046FFF74FFE53E064
:1040C000B9F10C0F2AD0B9F1100F2ED0B9F1180F99
:1040D0002ED0B9F1200F49D12749039801EB801068
:1040E000002610F805A0109800284FF0010000FAF3
:1040F00006F000EA0A0022D020B12046049A029974
:10410000FFF792FE641C0098A4B2201AB84225D191
:104110000298009C401C80B2029023E0039817494B
:1041200000EB400001EB8000DAE71549039803E05B
:104130000398144900EB400001EB0010D0E708B1F0
:10414000049800E00E9800F0F7FB08F10100C0B2FF
:10415000B0FBF7F1804607FB118050B1761CF6B238
:10416000082EC0D36D1CADB25D45A9D305B0BDE826
:10417000F08F4FF00008F5E73C6E00080852000889
:104180007C5600086C5C00082DE9FE4F9946DDE97D
:104190000D4615468A460746DDF8308014E00C2CA3
:1041A00017D0102C20D0182C29D0202C0FD1CDF8CE
:1041B0000080CDE901464B462A465146384600F07C
:1041C0009BF9381987B2AD1C28780028E7D1BDE8E3
:1041D000FE8FCDF80080CDE901464B462A46514678
:1041E000384600F017F8ECE7CDF80080CDE901463D
:1041F0004B462A465146384600F088F8E1E7CDF8AC
:104200000080CDE901464B462A465146384600F02B
:10421000F7F8D6E72DE9FF4F83B08046119D4FF0A8
:10422000000900904E46680700D0012000EBD50041
:1042300000FB05FB0A20029006EB860000EBC6019E
:104240003148059A10F811301278934251D100EBA1
:1042500041000190417805984078814249D1049805
:1042600004992844401E83B208EB0500401E82B228
:104270004046FFF773FD002739E00198002400EB6A
:10428000070A12989AF8021000284FF0010000FA6D
:1042900004F001EA000115D021B14046069A0499C4
:1042A000FFF7C2FD08F101001FFA80F80098A8EBA3
:1042B0000000A84215D10498DDF80080401C80B2AF
:1042C000049012E009B1069800E0109800F034FB69
:1042D00009F10100C0B2B0FBF5F1814605FB119078
:1042E00078B1641CE4B2082CCBD37F1CFFB25F45CD
:1042F000C3D3761C0298B6B286429DD307B0BDE800
:10430000F08F4FF00009F0E7FC8500082DE9FF4F22
:1043100083B08046119D4FF0000900904E4668071B
:1043200000D0012000EBD50000FB05FB0720029028
:104330003248059A06EB061110F8113012789342B4
:1043400050D100EB410001904178059840788142BE
:1043500048D1049804992844401E83B208EB050014
:10436000401E82B24046FFF7F9FC002738E0019872
:10437000002400EB070A12989AF8021000284FF068
:10438000010000FA04F001EA000114D021B1404616
:10439000069A0499FFF748FD08F1010000991FFAF9
:1043A00080F8A8EB0100A84214D104988846401C6C
:1043B00080B2049012E009B1069800E0109800F075
:1043C000BBFA09F10100C0B28146B0FBF5F005FB74
:1043D000109078B1641CE4B2082CCCD37F1CFFB2DF
:1043E0005F45C4D3761C0298B6B28642A0D307B00C
:1043F000BDE8F08F4FF00009F0E7000000870008EB
:104400002DE9FF4F83B08046119D4FF000090090C9
:104410004E46680700D0012000EBD50000FB05FBED
:104420000220029006EB860000EB46113148059A07
:1044300010F811301278934251D100EB41000190F5
:10444000417805984078814249D1049804992844DC
:10445000401E83B208EB0500401E82B24046FFF7C3
:104460007DFC002739E00198002400EB070A129830
:104470009AF8021000284FF0010000FA04F001EA57
:10448000000115D021B14046069A0499FFF7CCFCF3
:1044900008F101001FFA80F80098A8EB0000A8427C
:1044A00015D10498DDF80080401C80B2049012E021
:1044B00009B1069800E0109800F03EFA09F10100F9
:1044C000C0B2B0FBF5F1814605FB119078B1641CD8
:1044D000E4B2082CCBD37F1CFFB25F45C3D3761C5C
:1044E0000298B6B286429DD307B0BDE8F08F4FF078
:1044F0000009F0E7EE8700082DE9FF4F83B0804602
:10450000119D4FF0000900904E46680700D0012031
:1045100000EBD50000FB05FB022002903248059A13
:1045200006EB861110F811301278934250D100EB4F
:1045300041000190417805984078814248D1049823
:1045400004992844401E83B208EB0500401E82B245
:104550004046FFF703FC002738E00198002400EBF9
:10456000070A12989AF8021000284FF0010000FA8A
:1045700004F001EA000114D021B14046069A0499E2
:10458000FFF752FC08F1010000991FFA80F8A8EB30
:104590000100A84214D104988846401C80B20490BF
:1045A00012E009B1069800E0109800F0C5F909F191
:1045B0000100C0B28146B0FBF5F005FB109078B168
:1045C000641CE4B2082CCCD37F1CFFB25F45C4D37B
:1045D000761C0298B6B28642A0D307B0BDE8F08F31
:1045E0004FF00009F0E70000828800082DE9F04153
:1045F0008CB00446202103A8FBF7BDFF14F0FF0098
:104600004FF000044FF00C054FF478464FF01807B8
:104610004FF6E0782BD001283CD0022860D0042847
:104620007ED0032859D153A103A8FBF7A5FECDE9FD
:104630000045334603AA18217F20029400F05EF95A
:10464000202103A8FBF797FF4BA103A8FBF794FEDB
:10465000CDE90045334603AA40217620029400F0BC
:104660004DF9202103A8FBF786FF45A125E045A1D0
:1046700003A8FBF781FECDE90045334603AA1821C4
:104680007F20029400F03AF9202103A8FBF773FF82
:104690003DA15DE03EA103A8FBF76EFECDE900451C
:1046A000334603AA18217F20029400F027F9202125
:1046B00003A8FBF760FF37A1C7E703A8FBF75CFE81
:1046C000CDE90047434603AA66217C20029400F00E
:1046D00015F9202103A8FBF74EFF0CB0BDE8F081CF
:1046E0002EA103A8FBF748FECDE90045334603AAF7
:1046F00018217F20029400F001F9202103A8FBF784
:104700003AFF27A103A8FBF737FECDE90045334662
:1047100003AA40217620029400F0F0F8202100E066
:1047200004E003A8FBF727FF1FA1C6E71FA103A80A
:10473000FBF722FECDE90045334603AA18217F206E
:10474000029400F0DBF8202103A8FBF714FF0AA174
:1047500003A8FBF711FECDE90045334603AA40212B
:104760007620029400F0CAF8202103A8FBF703FF8B
:104770000FA1A2E742555A0020202020200000006F
:1047800020520000564F4C00302D333656000000AA
:1047900052455300302D314D520000004355520018
:1047A000302D3241200000006D41000044494F008F
:1047B000562000002DE9FE43002480468023A022DD
:1047C000214620460094FFF73AFB6420FDF7A6FC43
:1047D0001020CDE900404FF4FC652B4639A20221A0
:1047E0000D200294FFF7D0FC0C26CDE900464FF6D1
:1047F000FF773B4636A204216C200294FFF7C4FCED
:10480000CDE900463B4635A22C216C200294FFF7EF
:10481000BBFCCDE900463B4633A254216C200294F8
:10482000FFF7B2FCCDE900463B4632A265210E20DF
:10483000029400F063F8CDE900463B462EA26521C4
:104840004220029400F05AF8692280230021104689
:104850000095FFF7A0FA1423A8221946002000951E
:10486000FFF799FA2823A822194669200095FFF737
:1048700092FA3C23A822194669200095FFF78BFA8B
:104880005023A822194669200095FFF784FA642373
:10489000A822194600200095FFF77DFA34228023D4
:1048A000642110460095FFF776FA722369221946B3
:1048B00000200095FFF76FFA4046BDE8FE43FFF782
:1048C00095BE0000BCF2D2D7CDF2D3C3B1ED00004B
:1048D000B5B1C7B0C4A3CABD00000000B5B1C7B030
:1048E000C1BFB3CC00000000B5B1C7B0B5A5CEBB09
:1048F000000000004D6178004D696E002DE9FE4F0B
:104900009946DDE90D6714468A460546DDF8308094
:104910000CE0CDF800804B4651462846CDE90167B2
:10492000FFF7ACFB05EB560085B2641C2278002A29
:10493000EFD1BDE8FE8F000038B500210091010ADB
:104940008DF800100A4C8DF801000022022120464B
:10495000FDF7F3FC4FF0FF33022269460548FEF7EE
:10496000D7F8012202212046FDF7E7FC38BD000000
:10497000000002407800002031B5094C00220221DD
:104980002046FDF7DAFC4FF0FF3301226946054867
:10499000FEF7BEF8012202212046FDF7CEFC38BD0D
:1049A000000002407800002031B50E4C002210219A
:1049B0002046FDF7C2FC002202212046FDF7BDFC87
:1049C0004FF0FF33012269460748FEF7A1F80122A4
:1049D00002212046FDF7B1FC012210212046FDF7FF
:1049E000ACFC38BD00000240780000200148FEF712
:1049F0009CBA0000D0000020F0B50268294C2A4D76
:104A00002A4E2B4F2B4B4FF0804CA04209D06045D3
:104A100007D0A84205D0B04203D0B84201D0984296
:104A200004D122F0700E4A6842EA0E02A0421BD066
:104A3000604519D0A84217D0B04215D0B84213D063
:104A4000984211D01C4DA8420ED01C4DA8420BD04C
:104A50001B4DA84208D01B4DA84205D01A4DA842B4
:104A600002D01A4DA84203D122F44075CA682A43E5
:104A70004D6922F080022A4302608A68C2620A6895
:104A80008262A04201D0984201D1096901630121EB
:104A900041610169C90703D0016921F00101016188
:104AA000F0BD00000000014000040040000800408C
:104AB000000C00400004014000400140004401405F
:104AC0000048014000180040001C00400020004049
:104AD00010B5846842EA032224F47F440A43224347
:104AE000826010BD826822F070020A4342F0070122
:104AF0008160704710B5036A046A24F001040462FF
:104B0000846924F0F00444EA021423F00A020A4300
:104B10008461026210BD10B5036A046A24F01004B7
:104B20000462846923F0A00324F4704444EA02324E
:104B300043EA01118261016210BDFEE7F0B52DED7F
:104B4000048B8BB00446DFED7B8A202103A8B0EEF6
:104B5000688AFBF710FD0A20FFF796F8C820FDF7DA
:104B6000CFF800EE100AF8EE400A00EE104AB8EE58
:104B7000401A80EE810ADFED700A71496F4D088896
:104B800005EB8002401C80B2642820EE200A82EDF2
:104B9000000A08807ED36421284600F016F90A2016
:104BA00005EB8001401C91ED000A80B25A2830EEDE
:104BB000088AF5D39FED630A634AC8EE001A11EE26
:104BC000900A9FED622A9FED620AF3EE060A9FEDBE
:104BD000611A614900242026D5ED592A4FF47847FF
:104BE000904221DD72EEC22A71EEC21A62EE802A74
:104BF00061EE801A82EEA03AD5ED0A2A72EEC22A40
:104C000062EE803A81EEA00A33EE019AC3EEA02A4A
:104C100030EE018A18EE100A884272EE819A01DCA9
:104C2000B0EE688A4DA120E072EE622A72EE611A3F
:104C300022EE803A61EE801AC3EE202A95ED0A3A00
:104C400032EE433A63EE003A81EEA00A72EEC19A68
:104C500083EEA03A30EE418A18EE100A884233EE15
:104C6000419A01DCB0EE688A3DA103A8FBF784FB02
:104C7000CDE900463B4603AA282104200294FFF711
:104C80003DFE202103A8FBF776FC18EE100A00F089
:104C90003BFA00E049E041EC100B32A153EC102B41
:104CA00003A8FBF769FBCDE900463B4603AA282190
:104CB00014200294FFF722FE202103A8FBF75BFCDF
:104CC00019EE100A00F020FA41EC100B25A153EC6C
:104CD000102B03A8FBF750FB0C25CDE900453B4604
:104CE00003AA732108200294FFF708FE202103A8DD
:104CF000FBF741FC19EE900A00F006FA41EC100BAC
:104D000018A153EC102B03A8FBF736FBCDE90045A7
:104D10003B4603AA73213C200294FFF7EFFD2021BC
:104D200003A8FBF728FCFCF7D7FD0BB0BDEC048B08
:104D3000F0BD00000000000048E19A3F180100208B
:104D4000200000200000A042B81ED53FB81ED53F6D
:104D50000000F6433333333ECDCCCC3D2000000081
:104D60002D00000025342E326600000003B40198A7
:104D70004100009850EAC12018BF04204A0D18BF16
:104D800040F0010040F2FF72B2EB515F08BF40F00B
:104D90000200012808BF052002B070470907090E6C
:104DA000002804DB00F1E02080F80014704700F0D8
:104DB0000F0000F1E02080F8141D704730380A28F9
:104DC00001D2012070470020704770B500234E1EAD
:104DD00016E00022CD1A6D1E0EE000EB820494EC6A
:104DE000020AB4EEE00AF1EE10FA03DDC4ED000AA7
:104DF00084ED010A521C92B29542EEDC5B1C9BB220
:104E0000B342E6DB70BD38B50C4621281BDD2228F5
:104E100019D120780025401CC0B22070052800D38D
:104E20002570FCF759FD2078FEF789FA6570482354
:104E30006422282104200095FFF701F82068BDE8CE
:104E40003840FFF7D3BB38BD2DE9F05F664F4FF414
:104E50000075002629463846FDF76AFA634C4FF084
:104E6000780A38B92078401CC0B22070782801D365
:104E700084F800A029463846FDF75AFA5B4F4FF0F8
:104E8000280B0937BD1F4FF0000905F10308012861
:104E90002AD12078642801D33978A9B1022808D30F
:104EA00098F80010491C88F8001085F800B001201F
:104EB000387084F8009029784846A9B1491E11F04D
:104EC000FF01297002D00FE03026F2E798F80020A9
:104ED000012A02D0022A02D002E0102600E0202699
:104EE000287088F80000387008214148FDF720FA42
:104EF00038B96078401CC0B26070782801D384F85B
:104F000001A008213A48FDF713FA01282AD1607858
:104F1000642801D37978A9B1022808D398F8011040
:104F2000491C88F8011085F801B00120787084F8D8
:104F3000019069784846A9B1491E11F0FF016970D6
:104F400002D00FE03126F2E798F80120012A02D0C2
:104F5000022A02D002E0112600E02126687088F8BB
:104F60000100787004212348FDF7E2F938B9A078F0
:104F7000401CC0B2A070782801D384F802A004219C
:104F80001C48FDF7D5F901282AD1A078642801D35F
:104F9000B978A9B1022808D398F80210491C88F8FA
:104FA000021085F802B00120B87084F80290A97848
:104FB0004846A9B1491E11F0FF01A97002D00FE0C7
:104FC0003226F2E798F80220012A02D0022A02D003
:104FD00002E0122600E02226A87088F80200B870CD
:104FE0003046BDE8F09F000000080240100000209D
:104FF000000C02400000024008B5002400948DF827
:1050000000408DF80140ADF80240FDF7DDF9FEF7F4
:1050100051FEFEF777F8FEF741F8FEF739F9FEF793
:1050200059F9FEF71FF91120FEF72EFEC820FCF7F4
:1050300067FEADF80200FEF721FF0098FFF7BAFB0C
:105040001F48FDF7C3FE9DF80000FEF778F91D4EDE
:105050001D4D3088322803D31C48FDF7A6F9348053
:1050600028880A2806D32C80FFF7EEFE10B1694687
:10507000FFF7C9FE9DF8000060B101280FD002289B
:1050800013D0032816D00428E3D1BDF80200FCF7A2
:105090004BFCDEE7BDF80200FFF750FDD9E7BDF895
:1050A00002106846FEF7C8F9D3E7BDF80200FCF726
:1050B0003BFDCEE7BDF80200FCF7E2FAC9E70000CD
:1050C000D00000201E0000201C0000206C000020EA
:1050D00010B500290AD00878002807D00548784480
:1050E000FBF728FE002801D0002010BD02487844BC
:1050F00010BD00005E390000563900000808A0F518
:1051000000114FEA3101704743004FEAD30C4FEAD8
:105110003C0C43401FBF40070CF1605113F0FE4FA1
:1051200070471CF0006F03D100200CF00041704765
:105130000CF0004343EA507010B540EACC0000F098
:105140000EF800BF000000924FEA0001FFF7D6BF43
:105150004FF000414FF00000A1F5002170470EF123
:10516000020E2EF0030E5EF8044B244204D44FEAE4
:105170004102B2F17F4F11D84FEA4003B3F17F4FA4
:105180000CD80ED14FEAD07CB2F17F4F0CEB4C0C17
:105190000CF1020C08BF4CEBD17C04E04FF0080C82
:1051A00001E04FEAD17C0CEB4C0324FA03F404F049
:1051B0000704B4F1040C06D20EEB840CBDE81040D9
:1051C0004CF0010C6047DFE80CF0070802024FF0DA
:1051D0000040A0F5800010BD0846420018BFD2F183
:1051E000807288BF00F0004010BD4FF04070E1EECB
:1051F000100A7047FBF71BBB000000000000000016
:105200000102030406070809000000000000000076
:105210000000000000000404040404000004000076
:1052200014140A00000000000000000000000A0A38
:105230001F0A0A1F0A0A000000040E1505060C14B6
:10524000150E0400000012150D152E2C2A12000058
:105250000000040A0A361515291600000202010092
:10526000000000000000000010080804040404040A
:1052700008081000020404080808080804040200D2
:1052800000000004150E0E150400000000000008C8
:10529000083E0808000000000000000000000000B8
:1052A0000202010000000000003F000000000000BA
:1052B00000000000000000000002000000201010AC
:1052C000080804040202010000000E11111111115E
:1052D000110E00000000040604040404040E000083
:1052E00000000E1111080402011F000000000E1141
:1052F000100C1010110E00000000080C0C0A091F01
:10530000081C000000001F01010F1110110E000009
:1053100000000C12010D1311110E000000001E10F0
:10532000080804040404000000000E11110E1111FD
:10533000110E000000000E111119161009060000D0
:105340000000000004000000000400000000000055
:10535000000400000004040000001008040202041D
:1053600008100000000000003F003F0000000000A7
:1053700000000204081010080402000000000E11D2
:10538000110804040004000000001C22292D2D1D1A
:10539000221C0000000004040C0A0A1E1233000044
:1053A00000000F12120E1212120F000000001E1148
:1053B00001010101110E000000000F121212121261
:1053C000120F000000001F120A0E0A02121F000036
:1053D00000001F120A0E0A020207000000001C1241
:1053E00001013911120C000000003312121E1212BA
:1053F0001233000000001F0404040404041F000012
:1054000000003E08080808080808090700003712CD
:105410000A060A1212370000000007020202020206
:10542000223F000000003B1B1B1B1515153500001B
:1054300000003B1216161A1A1217000000000E1177
:1054400011111111110E000000000F12120E0202B4
:105450000207000000000E1111111117190E18009B
:1054600000000F12120E0A121237000000001E1167
:1054700001060810110F000000001F1504040404A9
:10548000040E00000000331212121212120C00005F
:1054900000003312120A0A0C040400000000151563
:1054A00015150E0A0A0A000000001B0A0A04040A65
:1054B0000A1B000000001B0A0A0A0404040E000074
:1054C00000001F0908040402121F00001C04040449
:1054D0000404040404041C00000202040404080878
:1054E000081010000E0808080808080808080E0030
:1054F000040A00000000000000000000000000009E
:10550000000000000000003F020400000000000056
:105510000000000000000000000C121C123C000003
:1055200000030202020E1212120E00000000000020
:10553000001C1202120C000000181010101C121295
:10554000123C000000000000000C121E021C0000B3
:1055500000182404041E0404041E000000000000BF
:10556000003C120C021C221C00030202020E12124A
:10557000123700000004040000060404040E0000BA
:1055800000080800000C08080808080700030202C9
:10559000021A0A060A1300000007040404040404A3
:1055A000041F000000000000000F15151515000075
:1055B00000000000000F121212370000000000006F
:1055C000000C1212120C000000000000000F12125A
:1055D000120E020700000000001C1212121C1038EC
:1055E00000000000001B060202070000000000008F
:1055F000001E020C101E000000000004041E040423
:10560000041C000000000000001B1212123C0000ED
:1056100000000000001B0A0A040400000000000053
:105620000015150E0A0A000000000000001B0A0405
:105630000A1B000000000000003312120C080403D3
:1056400000000000001E0804041E000018080808DE
:10565000080C0808080818000808080808080808BE
:1056600008080808060404040408040404040600E6
:10567000160900000000000000000000000000000B
:105680000000000000000000000000000000000812
:1056900008080808080800001818000000486C24D2
:1056A00012000000000000000000000000000024C4
:1056B00024247F1212127F12121200000000081C14
:1056C0002A2A0A0C1828282A2A1C08080000002266
:1056D000251515152A585454542200000000000CBA
:1056E0001212120A76252911916E00000006060496
:1056F0000300000000000000000000000040201037
:1057000010080808080808101020400000020408CB
:10571000081010101010100808040200000000000B
:1057200008086B1C1C6B080800000000000000004B
:10573000080808087F0808080800000000000000AA
:105740000000000000000000060604030000000046
:1057500000000000FE00000000000000000000004B
:10576000000000000000000006060000000080406D
:105770004020201010080804040202000000001855
:1057800024424242424242422418000000000008E3
:105790000E08080808080808083E00000000003C41
:1057A0004242422020100804427E00000000003CDB
:1057B0004242201820404042221C000000000020ED
:1057C0003028242422227E20207800000000007E41
:1057D0000202021A26404042221C0000000000384B
:1057E0002402021A26424242241800000000007ED1
:1057F0002222101008080808080800000000003CD9
:105800004242422418244242423C00000000001858
:105810002442424264584040241C00000000000022
:105820000000181800000000181800000000000018
:10583000000000080000000000080804000000400C
:10584000201008040204081020400000000000009E
:1058500000007F0000007F00000000000000000248
:105860000408102040201008040200000000003C42
:105870004242464020101000181800000000001C92
:10588000225A555555552D42221C00000000000893
:1058900008181414243C224242E700000000001FB4
:1058A0002222221E22424242221F00000000007CCF
:1058B0004242010101010142221C00000000001FC0
:1058C0002242424242424242221F00000000003F68
:1058D0004212121E12120242423F00000000003F1C
:1058E0004212121E12120202020700000000003CC7
:1058F0002222010101712122221C0000000000E788
:10590000424242427E42424242E700000000003EE4
:105910000808080808080808083E00000000007C85
:1059200010101010101010101010110F0000007740
:1059300022120A0E0A12122222770000000000072B
:105940000202020202020202427F0000000000770F
:10595000363636362A2A2A2A2A6B0000000000E34F
:1059600046464A4A52525262624700000000001CFA
:105970002241414141414141221C00000000003FC1
:10598000424242423E020202020700000000001CA6
:105990002241414141414D53321C60000000003F13
:1059A0004242423E1212222242C700000000007C06
:1059B0004242020418204042423E00000000007FA4
:1059C0004908080808080808081C0000000000E74B
:1059D0004242424242424242423C0000000000E752
:1059E0004242222424141418080800000000006B0E
:1059F000494949495555362222220000000000E756
:105A0000422424181818242442E7000000000077DC
:105A10002222141408080808081C00000000007E58
:105A20002120101008040442423F000000780808BA
:105A3000080808080808080808087800000002029A
:105A4000040408080810102020204040001E1010F8
:105A5000101010101010101010101E00003844000C
:105A60000000000000000000000000000000000036
:105A70000000000000000000000000FF0006080019
:105A80000000000000000000000000000000000016
:105A90000000003C4278444242FC00000000000349
:105AA0000202021A26424242261A000000000000AA
:105AB0000000003844020202443800000000006088
:105AC000404040784442424264D800000000000058
:105AD0000000003C427E0202423C0000000000F058
